:100000000C94FA030C94E9130C94C2130C949B13F4
:100010000C9474130C9422040C9422040C944D132D
:100020000C9422040C9422040C9410140C947F144D
:100030000C9422040C9422040C9422040C942204A8
:100040000C9422040C9422040C9422040C94220498
:100050000C9422040C9422040C9422040C94031398
:100060000C9422040C9422040C9422040C94220478
:100070000C9422040C9422040C9422040C94220468
:100080000C94AB160C9422040C9422040C942204BD
:100090000C9422040C9422040C9422040C94220448
:1000A0000C9422040C9422040C94220405A84CCD38
:1000B000B2D44EB93836A9020C50B9918688083CA2
:1000C000A6AAAA2ABE000000803F080B0002020276
:1000D00000000904000001020200000524001001D4
:1000E0000524010101042402060524060001070578
:1000F000810310004009040100020A000000070506
:1001000002024000000705830240000004030904C6
:1001100012010002EF02014041233680000101027A
:10012000030141726475696E6F204C4C430041724B
:100130006475696E6F204C656F6E6172646F0052FA
:100140004541445900454E445F4C49564500524193
:10015000575F434F554E54533D004C4956455F4100
:100160004E474C453D00424547494E5F4C49564538
:1001700000454E445F53455454494E475300555330
:10018000425F4D4F44453D43444320636F6E666973
:1001900067206368616E6E656C0050524F46494C33
:1001A000453D454D432D7374796C652073657269C7
:1001B000616C2073657475700050524F4455435400
:1001C0005F4E414D453D454D432D636F6D706174EC
:1001D00069626C6520776865656C00312E322E335C
:1001E0000046575F56455253494F4E3D00484252D4
:1001F000494447455F4D4F44453D3250574D202BB4
:10020000203144495200494E565F4D4F544F523DA4
:1002100000494E565F454E434F4445523D004350C2
:10022000523D323430300043454E5445523D005229
:10023000414E47453D00535052494E473D004652BE
:10024000494354494F4E3D0044414D50494E473D6E
:10025000004D494E5F464F5243453D00464F524385
:10026000453D00424547494E5F53455454494E472A
:1002700053004552524F5220494E56414C49445F1B
:10028000434F4D4D414E44004F4B004552524F524B
:1002900020494E56414C49445F434F4D4D414E44D9
:1002A000004F4B004F4B004F4B004F4B00000000E6
:1002B00000240027002A002D003000000000002547
:1002C0000028002B002E0031000404040404030461
:1002D00005020202020403020202020606060606E4
:1002E00006040402020204040408020110408040D3
:1002F000102040804080080204018040201002014C
:10030000108010204040200000000200090F000073
:10031000030401000C0000000000000000000000C9
:10032000000000000000050F0992A1028502099F4C
:1003300009A009A409A509A6150025013500450154
:100340007501950581029503810309941500250126
:100350003500450175019501810209221501252805
:1003600035014528750795018102C00921A1028543
:1003700001092215012528350145287508950191A7
:10038000020925A102092609270930093109320984
:10039000330934094009410942094309280928154C
:1003A00001250C3501450C750895019100C00950D7
:1003B00009540951150026FF7F350046FF7F66036B
:1003C0001055FD7510950391025500660000095205
:1003D000150026FF0035004610277508950191028B
:1003E0000953150125083501450875089501910245
:1003F0000955A102050109300931150025017501D2
:1004000095029102C0050F0956950191029505913B
:10041000030957A1020B01000A000B02000A006643
:10042000140055FE150026FF00350047A08C000083
:100430006600007508950291025500660000C0052F
:100440000F0958A1020B01000A000B02000A002646
:10045000FD7F751095029102C0C0095AA102850264
:1004600009221501252835014528750895019102B5
:10047000095B095D1600002610273600004610278C
:10048000751095029102095C095E66031055FD27FF
:10049000FF7F000047FF7F00007520950291024515
:1004A000006600005500C0095FA1028503092215FE
:1004B0000125283501452875089501910209231564
:1004C000002503350045037504950191020958A1E3
:1004D000020B01000A000B02000A0075029502914E
:1004E00002C016F0D826102736F0D846102709602B
:1004F00075109501910236F0D846102709610962FE
:10050000950291021600002610273600004610279B
:1005100009630964751095029102096546102795D3
:10052000019102C0096EA102850409221501252846
:1005300035014528750895019102097016000026BD
:100540001027360000461027751095019102096F9B
:1005500016F0D826102736F0D846102795017510CA
:100560009102097166140055FE1500279F8C00004A
:100570003500479F8C000075109501910209721596
:100580000027FF7F0000350047FF7F000066031053
:1005900055FD7520950191026600005500C0097354
:1005A000A102850509221501252835014528750870
:1005B00095019102097016F0D826102736F0D8461A
:1005C0001027751095019102C00974A102850609D2
:1005D0002215012528350145287508950191020944
:1005E00075097616F0D826102736F0D846102775EC
:1005F0001095029102C00968A10285070922150120
:10060000252835014528750895019102096C1500CA
:1006100026102735004610277510950191020969AB
:100620001581257F350046FF007508950C92020163
:10063000C00966A102850805010930093115812527
:100640007F350046FF00750895019102C0050F092E
:1006500077A102850A09221501252835014528754B
:1006600008950191020978A1020979097A097B1597
:10067000012503750895019100C0097C150026FF2E
:1006800000350046FF009102C00990A102850B09C8
:10069000221501252835014528750895019102C0CC
:1006A0000996A102850C099709980999099A099B4D
:1006B000099C15012506750895019100C0097DA1C9
:1006C00002850D097E150026FF00350046102775AE
:1006D0000895019102C0096BA102850E092215013E
:1006E000252835014528750895019102096D1500E9
:1006F00026FF00350046FF0075089501910209515B
:1007000066031055FD150026FF7F350046FF7F75F7
:1007100010950191025500660000C009ABA1028549
:10072000050925A1020926092709300931093209DD
:1007300033093409400941094209430928250C15A8
:10074000013501450C75089501B100C00501093B53
:10075000150026FF01350046FF01750A9501B1021B
:100760007506B101C0050F0989A102850609222578
:100770002815013501452875089501B102098BA19D
:1007800002098C098D098E25031501350145037574
:10079000089501B100C009AC150027FFFF00003526
:1007A0000047FFFF000075109501B100C0097FA14F
:1007B0000285070980751095011500350027FFFF98
:1007C000000047FFFF0000B102098326FF0046FF3B
:1007D0000075089501B10209A909AA7501950215CC
:1007E00000250135004501B10275069501B103C030
:1007F000C000661811241FBECFEFDAE0DEBFCDBF08
:1008000012E0A0E0B1E0ECE7FDE402C005900D923B
:10081000A231B107D9F728E0A2E1B2E001C01D92F0
:10082000A032B207E1F713E0CAEFD3E004C021978A
:10083000FE010E947825C93FD107C9F70E94321AEC
:100840000C94BC260C940000282F30E0F901E95FDD
:10085000FC4F9491F901E851FD4F849127533D4F8E
:10086000F9012491222309F42DC09923E9F0915034
:100870009F30D0F4E92FF0E0E05CFB4F0C9478253A
:100880006B046F044F046304670454045404540459
:10089000720478047C048004860454048A049091D1
:1008A00080009F7790938000E22FF0E0EE0FFF1F13
:1008B000E554FD4FA591B4919FB7F894EC918E2B20
:1008C0008C939FBF0895909180009F7DEBCF909176
:1008D0008000977FE7CF94B59F7794BDE5CF94B51F
:1008E0009F7DFBCF909190009F7790939000DCCFFD
:1008F000909190009F7DF9CF90919000977FF5CFD8
:100900009091C0009F779093C000CECF9091C0008F
:100910009F7DF9CF9091C200977F9093C200C4CF82
:10092000CF92DF92EF92FF920F931F93CF93DF93BB
:10093000D901E8016A01F9014217530714F069016E
:10094000FA01882309F440C0CB016C157D050CF435
:10095000C6019F018E179F070CF49C01A417B507D1
:1009600034F4CF01821B930B9C012C0D3D1D0D2CEB
:10097000000CEE08FF08032E000C440B550B2C193D
:100980003D094E095F09AEEFBFEF0E9431229F0182
:10099000FF0F440B550B2C193D094E095F090E94AE
:1009A0001222DA01C9018F5F9F47A109B10988832B
:1009B000998382E090E0DF91CF911F910F91FF909A
:1009C000EF90DF90CF90089590E080E0F4CF2F92E9
:1009D0003F924F925F926F927F928F929F92AF92CF
:1009E000BF92CF92DF92EF92FF920F931F93CF931C
:1009F000DF93CDB7DEB72A970FB6F894DEBF0FBEF0
:100A0000CDBF8C016A017B01ECE02E9F800D911D12
:100A100011249A878987FC01658D768D90E080E0AE
:100A20000E948C234B015C01E985FA8563897489F6
:100A3000072E000C880B990B0E948E2369837A8302
:100A40008B839C83E985FA852788308C238D348DB0
:100A50003E832D83818D928D98878F830588F689BB
:100A6000E02DFA87E987A501940169817A818B815C
:100A70009C810E946D222B013C01A70196010E94DE
:100A80007D2418160CF069C020E030E44CE156E4F7
:100A9000C301B2010E94E4229B01AC01C701B6016F
:100AA0000E946D226B017C01B101330C880B990B04
:100AB0000E948E239B01AC01C701B6010E948224D3
:100AC0004B015C012D813E81B90190E080E00E94E4
:100AD0008C236B017C01F7FAF094F7F8F094A701EE
:100AE0009601C501B4010E94DA2287FF02C04601C7
:100AF0005701F8016481B7FAB094B7F8B09470E088
:100B000090E080E00E948E239B01AC01C501B401FE
:100B10000E948224F801218120E030E04FE753E475
:100B20000E94E4220E9456232A960FB6F894DEBF54
:100B30000FBECDBFDF91CF911F910F91FF90EF902E
:100B4000DF90CF90BF90AF909F908F907F906F90ED
:100B50005F904F903F902F90089529813A814B816B
:100B60005C81C501B4010E946E222B013C01AC01E5
:100B70009B01C701B6010E947D241816B4F5EF81D0
:100B8000F885BF0190E080E00E948C234B015C015E
:100B900020E030E44CE156E4C301B2010E94E422BB
:100BA0009B01AC01C701B6010E946D226B017C0163
:100BB00029853A85B901330F880B990B0E948E2342
:100BC0009B01AC01C701B6010E9482247B018D8389
:100BD00099839B01AC01C501B4010E94DA2287FD13
:100BE00088CF4701AD80B98084CF60E070E0CB0151
:100BF0009BCFCF93DF9390E0FC01E851FD4F249110
:100C000087539D4FFC0184918823D1F090E0880F99
:100C1000991FFC01E355FD4FA591B491FC01E554EA
:100C2000FD4FC591D491623071F49FB7F8943C9117
:100C3000822F809583238C93E8812E2B28839FBF5E
:100C4000DF91CF9108958FB7F894EC912E2B2C93D0
:100C50008FBFF6CF3FB7F8948091D9069091DA060E
:100C6000A091DB06B091DC0626B5A89B05C02F3FFE
:100C700019F00196A11DB11D3FBFBA2FA92F982FC2
:100C80008827BC01CD01620F711D811D911D42E0BD
:100C9000660F771F881F991F4A95D1F70895CF9245
:100CA000DF92EF92FF920E942A066B017C010E9464
:100CB0002A066C197D098E099F09683E73408105DB
:100CC0009105A8F3FF90EF90DF90CF9008950F93D8
:100CD0001F9389B190E09595879595958795837039
:100CE000E0914C0600919B0610919C0620919D0678
:100CF00030919E0694E0E99FF0011124E82BF0E08A
:100D0000ED5CFE4F9081492F990F550B660B770BC9
:100D1000400F511F621F731F40939B0650939C0608
:100D200060939D0670939E0680934C061F910F91D1
:100D30000895089540914406509145062091420639
:100D40003091430642175307B4F49091E800957030
:100D5000E1F39091E80092FD19C08093F100809139
:100D600044069091450601968F739927892B19F4B3
:100D70008EEF8093E800809144069091450601969D
:100D8000909345068093440681E0089580E008959D
:100D9000EF92FF920F931F93CF93DF93F82E192FAB
:100DA000E62E042F81E0860F880F0E949A0683E0CA
:100DB0000E949A06CF2DD12FEC0EFD2EF11CCE15E0
:100DC000DF05B9F007FF13C0FE0184910E949A0667
:100DD000182F80E00E949A06812321968111EFCF7F
:100DE000DF91CF911F910F91FF90EF90089588812F
:100DF000EDCF81E0F5CFDF92EF92FF920F931F933B
:100E0000CF93DF93D82E8A01EB017B01E40EF51E10
:100E1000CE15DF0559F0D7FE12C0FE0184910E9465
:100E20009A0621968111F4CF0FEF1FEFC801DF91D1
:100E3000CF911F910F91FF90EF90DF9008958881DF
:100E4000EECF2FB7F89487708093E9009091E80077
:100E5000892F807295FF04C09091F20080E4891B75
:100E60002FBF08957F928F929F92AF92BF92CF92A1
:100E7000DF92EF92FF920F931F93CF93DF93C82ED1
:100E80008B017A0180914B06811110C08FEF9FEF8B
:100E9000DF91CF911F910F91FF90EF90DF90CF9056
:100EA000BF90AF909F908F907F900895809149065A
:100EB00080FF05C08091E00082608093E000CE2D2D
:100EC000DF2DD12C8AEFB82E8C2D8770982E8C2D8B
:100ED0008072882E8C2D8074782E9AE3A92E20970C
:100EE00019F4DD2009F44EC08C2D0E9421078111D8
:100EF00006C0BA94BB2051F20E944F06F0CF8C1767
:100F00001D0611F00CF08C2F9FB7F8949092E90019
:100F10002091E80025FD02C09FBFE1CF282F30E0DF
:100F2000C21BD30B882029F08150A0F01092F10051
:100F3000FBCFF801C7FC0AC0815050F041914093AB
:100F4000F100FACF44914093F10031968150D0F7EF
:100F5000020F131FDD2021F0A092E800D12CDCCF7E
:100F60008091E80085FD07C0A092E800DD24D394BD
:100F7000209791F2F3CF209779F6772069F2A0922B
:100F8000E800CACF5D9884E680934806C70180CF09
:100F900090914B06992319F13FB7F894877080938D
:100FA000E9008091F20090E0481759070CF4CA015B
:100FB000282FFB0154E6215038F02898509347061B
:100FC0004091F1004193F7CF009739F02091F20062
:100FD000211103C02BE62093E8003FBF08958FEF57
:100FE0009FEF08959FB7F89487708093E9008091F0
:100FF000F2009FBF0895615030F02091F100FC0194
:1010000020830196F8CF289884E6809347060895B8
:10101000AF92BF92DF92EF92FF920F931F93CF9305
:10102000DF935C018B01EB019BEFD92E2097C1F080
:101030007E01C134D1051CF080E4E82EF12C8091B2
:10104000E80082FFFCCFC8018C1B9D0B6E2D8A0D22
:101050009B1D0E94FB07D092E800CE19DF09E6CF66
:10106000C801DF91CF911F910F91FF90EF90DF901A
:10107000BF90AF90089580913A0681110DC082E033
:101080008093360684E080933706109239061092DA
:10109000380681E080933A0686E396E008950F9340
:1010A0001F93CF93DF931F92CDB7DEB782E0898382
:1010B00042E450E06AEC70E080E80E94FB060E9487
:1010C0003B08DC0112960D911C910115110589F068
:1010D000D801ED91FC910280F381E02DBE016F5F9C
:1010E0007F4FC801099597FD04C0F801008511855F
:1010F000ECCF89810F90DF91CF911F910F910895CF
:10110000CF93DF93EC0180911F01882331F083E0BE
:101110000E9432071816190634F081E090E09B8394
:101120008A8380E090E0DF91CF910895CF93DF93A1
:101130001F92CDB7DEB76983DC01ED91FC9102808F
:10114000F381E02D41E050E0BE016F5F7F4F0995D4
:101150000F90DF91CF9108950F931F93CF93DF935B
:101160008C01D0E0C0E0F801EC0FFD1F6491662314
:1011700041F081EE96E00E949608892B11F02196AD
:10118000F2CFCE01DF91CF911F910F91089583E0AF
:101190008093E9008091F200882319F08AE380931C
:1011A000E800089583E00E94210790E00895CF931E
:1011B000DF931F92CDB7DEB7FC018485958597FD3F
:1011C00008C02FEF3FEF358724870F90DF91CF9135
:1011D000089541E050E0BE016F5F7F4F82E00E94C2
:1011E000C807019719F4898190E0EFCF8FEF9FEF47
:1011F000ECCF0F931F93CF93DF931F92CDB7DEB742
:101200008C01FC018485958597FF0FC041E050E07B
:10121000BE016F5F7F4F82E00E94C807019771F4A3
:10122000898190E0F80195878487F8018485958508
:101230000F90DF91CF911F910F9108958FEF9FEF46
:10124000F1CFFC018485958597FD06C082E00E9460
:10125000F20790E00196089582E00E94F20790E084
:1012600008952F923F924F925F926F927F928F924A
:101270009F92AF92BF92CF92DF92EF92FF921F9315
:10128000CF93DF93CDB7DEB760970FB6F894DEBF8C
:101290000FBECDBF9E838D834D875E876F87788B12
:1012A000DC0114962C91FC01A585B68530E00E94E6
:1012B0007E252FEF30E040E050E00E9412226901CD
:1012C0007A01AD81BE8114968C91149715960D907C
:1012D000BC91A02DED81FE81148127803084438450
:1012E0005484712C612C81849284940150E040E0FC
:1012F00029833A834B835C8385A896A8B12CA12CC3
:1013000063A974A99B0150E040E02D833E834F8385
:101310005887A701960184149504A604B70444F5E0
:10132000282F30E00E947E252FEF30E040E050E093
:101330000E94122229873A874B875C87A701960172
:1013400069857A858B859C85261B370B480B590B45
:10135000C501B4010E944025A30192010E941222FE
:1013600049845A846B847C84240D351D461D571D89
:101370008D819E81AF81B88549805A806B807C8049
:1013800084199509A609B70988159905AA05BB0509
:101390003CF5212F30E0D1010E947E252FEF30E077
:1013A00040E050E00E94122229013A01A701960173
:1013B00024193509460957096D817E818F819885E9
:1013C000681979098A099B090E94402529813A8177
:1013D0004B815C810E941222240D351D461D571D34
:1013E0006D857E858F8598890E944025A70196018D
:1013F0000E941222CA01B90160960FB6F894DEBFAE
:101400000FBECDBFDF91CF911F91FF90EF90DF9086
:10141000CF90BF90AF909F908F907F906F905F9094
:101420004F903F902F900895BC0130E020E08FE373
:10143000DB01AF53BC4F829FF001839FF00D11245D
:10144000E60FF71F91819D7F91834D915C911197DC
:10145000415C5F4F11965C934E932F5F3F4F2F304F
:10146000310549F70895FB0128E4208329E421830D
:1014700024E42283DC01A85EBB4F9C919F709F5B9C
:1014800093838D919C9124E0969587952A95E1F719
:101490008F708F5B848385E00895EF92FF920F93A6
:1014A0001F93CF93DF93DB012C91213809F046C0C5
:1014B00013962C911397223209F040C0FC0142810F
:1014C00014962D913C9142171306C1F58C01EA5EEA
:1014D000FB4FE080F180D0E0C0E0E114F10441F185
:1014E000F701468157816281738180E00E94FB068B
:1014F0008F3F980751F4CFEFDFEFCE01DF91CF910F
:101500001F910F91FF90EF900895C80FD91FF70119
:10151000408551856481758180E80E94FB068F3F7C
:10152000980749F3C80FD91FF701E080F180D5CFA4
:10153000F801E65EFB4F81E08083DFCFD0E0C0E0C2
:10154000DCCFCF93DF93CDB7DEB7A0970FB6F8947B
:10155000DEBF0FBECDBFFC01DB018C918F5F8C9392
:101560009E012D5F3F4F8CE0D9011D928A95E9F7CE
:1015700099E0998384E08A8382E08D8383E08E837F
:101580009A8791E29B8791E19C8791E09D879F8755
:1015900022E2288B57E05B8B45E04C8B8E8B20E45E
:1015A00030E0388F2F8B998F5A8F4B8F8D8F3F8FD5
:1015B0002E8F98A382818B83DF01A85EBB4F9C9105
:1015C00011968C91998B8A8B8381982F90689D8B33
:1015D0008F5F8C8F40E250E0BE016F5F7F4F80E0F5
:1015E0000E94FB06A0960FB6F894DEBF0FBECDBFDB
:1015F000DF91CF910895CF93DF9380912E068111D3
:101600008BC082E08093160281E08093170226EE61
:1016100035E0309319022093180210921B021092A9
:101620001A0224E531E03093130220931202109243
:10163000CF051092D0051092D1051092D2051092CC
:10164000D4051092D3051092D6051092D50520919D
:10165000300130913101409132012093D705309310
:10166000D8054093D90580931C021092CE051092A4
:1016700029061092280610922B0610922A068093B3
:101680002C0680932D0681EC8093E60580EC8093F8
:10169000E7050E943B08FC01818190911602482FCA
:1016A000490F5527551F483051059CF5A281B3813C
:1016B000109709F522E132E03383228320812093C1
:1016C00014028093150280911702820F808320916B
:1016D0001802A22FB09119028A2F821B8917C8F411
:1016E00081813D91C82FD0E0C35FDE4F38838F5F8B
:1016F0008183F2CFD90118962D913C91199721152C
:101700003105C1F722E132E019963C932E931897E8
:10171000D5CF81E080932E0682E192E0DF91CF91D8
:101720000895ABECB6E016968C911697E0E0F1E0E8
:101730008083818382838383848385838683878375
:101740001A969C911A97908718969C911897918752
:10175000928719969C9193878487F0931808E09359
:10176000170808958DE0E3E4F1E0ABECB6E00190FA
:101770000D928A95E1F78DE0E3E4F1E0ADE4B6E0A7
:1017800001900D928A95E1F70895FC01DB019D918E
:10179000BD01992329F081919817C1F380E0089544
:1017A00081E00895EF92FF920F931F93CF93DF9301
:1017B0007C018C01C6E0D0E0CE010E94FC21F80142
:1017C00081938F012196C331D105B1F7C701DF9114
:1017D000CF911F910F91FF90EF9008950F931F935A
:1017E000CF93DF938C01EB010E94FC218883C80119
:1017F00001960E94FC218983CE01DF91CF911F9138
:101800000F9108958F929F92AF92BF920F931F9363
:10181000CF93DF93CDB7DEB7A1970FB6F894DEBFB5
:101820000FBECDBF19A2423008F44AE08E010F5D11
:101830001F4F842E912CB12CA12CA50194010E9444
:101840003C22E62FB901CA01EA3044F5E05DD80137
:10185000EE938D01232B242B252B79F790E080E04C
:10186000109769F0FD0101900020E9F73197AF0171
:101870004A1B5B0BBD0181EE96E00E948008A19699
:101880000FB6F894DEBF0FBECDBFDF91CF911F9191
:101890000F91BF90AF909F908F900895E95CD7CF44
:1018A000CF92DF92EF92FF92CF93DF936B017C0197
:1018B0006DE281EE96E00E949608EC01662777279C
:1018C000CB016C197D098E099F094AE00E94020C28
:1018D0008C0F9D1FDF91CF91FF90EF90DF90CF9005
:1018E000089542E050E06EE671E081EE96E00C94DF
:1018F0008008CF93DF930E94AC08EC010E94710C2A
:101900008C0F9D1FDF91CF910895CF93DF93682FA8
:1019100070E090E080E04AE00E94020CEC010E943E
:10192000710C8C0F9D1FDF91CF910895CF93DF93A2
:1019300097FF0AC00E94500CEC010E94710C8C0FA2
:101940009D1FDF91CF9108954AE00E94020CF4CFD1
:101950008F929F92AF92BF92CF92DF92EF92FF92BF
:101960000F931F93CF93DF93CDB7DEB7ADB6BEB65F
:10197000809116082DB73EB7281B31090FB6F89491
:101980003EBF0FBE2DBF8DB79EB701966C01E09094
:10199000E507F12C8091E1079091E207D601FC0167
:1019A0009F01281B390B2E153F051CF421912D9307
:1019B000F7CF8091E607882359F18091DD07909158
:1019C000DE0728E097FD09C068E671E00E94642503
:1019D0006DE270E00E946425262F8091DF079091D0
:1019E000E00768E097FD08C068E671E00E946425A2
:1019F0006DE270E00E946425F601EE0DFF1D90E19E
:101A0000699FB0011124262B2083F70131967F01B5
:101A100086010E0D1F1D2091EB073091EC074091C0
:101A2000E9075091EA076091C7077091C807809154
:101A3000E70781700E949004E80EF91E86010E0DE2
:101A40001F1D2091EF073091F0074091ED07509155
:101A5000EE076091C9077091CA078091E7078695E4
:101A600081700E949004E80EF91E86010E0D1F1D64
:101A70002091F3073091F4074091F1075091F2075C
:101A80006091CB077091CC078091E70782FB882794
:101A900080F90E949004E80EF91E86010E0D1F1DAC
:101AA0002091F7073091F8074091F5075091F6071C
:101AB0006091CD077091CE078091E70783FB88275F
:101AC00080F90E949004E80EF91E86010E0D1F1D7C
:101AD0002091FB073091FC074091F9075091FA07DC
:101AE0006091CF077091D0078091E7078295817050
:101AF0000E949004E80EF91E86010E0D1F1D209114
:101B0000FF07309100084091FD075091FE0760915A
:101B1000D1077091D2078091E70785FB882780F96C
:101B20000E949004E80EF91E86010E0D1F1D2091E3
:101B30000308309104084091010850910208609117
:101B4000D5077091D6078091E80781700E949004B4
:101B5000E80EF91E86010E0D1F1D20910708309119
:101B6000080840910508509106086091D3077091CC
:101B7000D4078091E807869581700E949004E80E52
:101B8000F91E86010E0D1F1D20910B0830910C08C7
:101B90004091090850910A086091D7077091D807C1
:101BA0008091E80782FB882780F90E949004E80E64
:101BB000F91E86010E0D1F1D20910F08309110088F
:101BC00040910D0850910E086091D9077091DA0785
:101BD0008091E80783FB882780F90E9490048E0D8E
:101BE0009F1D8601080F191F2091130830911408BA
:101BF00040911108509112086091DB077091DC0749
:101C00008091E807829581700E9490040E94FB0AEF
:101C10004C01409116088091150850E07A01FFEFC1
:101C2000EF1AFF0A2DB73EB72E193F090FB6F894E9
:101C30003EBF0FBE2DBF0DB71EB70F5F1F4FEDB7D5
:101C4000FEB78183B601C80101960E94AA26F4015D
:101C50008381A701B80180640E9432070FB6F8940F
:101C6000BEBE0FBEADBEDF91CF911F910F91FF9011
:101C7000EF90DF90CF90BF90AF909F908F9008959E
:101C80004F925F926F927F928F929F92AF92BF928C
:101C9000CF92DF92EF92FF920F931F93CF93DF9338
:101CA000CDB7DEB761970FB6F894DEBF0FBECDBFDC
:101CB0004C01A982BA82CB82DC82ED82FE820F8344
:101CC000188729873A874B875C876D872596BFAC35
:101CD00025972496CCACDDACEEACFFAC2497DC01B0
:101CE0001F968C911F97843029F452968C9101E0B5
:101CF000813009F000E0F4018785843009F03DC0AF
:101D000060898289823008F03DC010E070E090E088
:101D100080E00E948E2320E030E044EB53E40E94F8
:101D2000822420E030E04FE753E40E94E42225E3E0
:101D30003AEF4EE85CE30E948224B11025C00E9475
:101D4000EF246E877F87888B998BD4011196EC9155
:101D50001197E150EB3008F03BC3F0E0EE54F14F47
:101D60000C947825CE0EEB0E390F7B0FDF0F481049
:101D70009D10EC1011112F11CC11B11002C060890F
:101D8000C4CF61891B2DC2CF0E94DF229B01AC0111
:101D900050582E873F87488B598BD7CFF401458504
:101DA0005685052E000C660B770BC4010E94310985
:101DB0009B01AC01AA81B0E00E9431220E948E23D7
:101DC0002E853F85488959890E9482240E94562386
:101DD0006B017C017EC29D96CD90DC909E97D5963E
:101DE0000D911C91D6979F966D917C91D0979D9661
:101DF0008D919C919E97D396ED90FC90681B790BEA
:101E0000072E000C880B990B0E948E232B013C019E
:101E1000B80190E080E00E948C239B01AC01C301DB
:101E2000B2010E9482242B013C01B70190E080E0C6
:101E30000E948C239B01AC01C301B2010E94E422E9
:101E40002B013C01B601DD0C880B990B0E948E23FF
:101E50009B01AC01C301B2010E946E220E94562375
:101E6000AB01BC01C4010E9431099B01AC01AB81F3
:101E7000A2CFF40102811381000F111FC584D68403
:101E800023A534A505A8F6A9E02DD401D196ED909F
:101E9000FC902E9DC0012F9D900D3E9D900D112414
:101EA0006FEF70E00E9450259B01BF0190E080E041
:101EB000620F731F811D911D970150E040E00E9449
:101EC0003C22F694E7942701712C612C46165706A4
:101ED0006806790668F40C191D09A801110F660B34
:101EE000770BC4010E9431099B01AC01AC8163CF27
:101EF0000C0D1D1DF2CFF401A280B380AA0CBB1CF7
:101F0000C584D684E3A4F4A465A976A901A912A97D
:101F10000115110509F44FC090E080E00E948C2368
:101F20002B013C01B80190E080E00E948C239B01D2
:101F3000AC01C301B2010E94E4229B01AC010E94EA
:101F40006E222BED3FE049E450E40E9482242B01F5
:101F50003C01B70190E080E00E948C2320E030EA51
:101F60004CE057E40E94E4229B01AC01C301B201A2
:101F70000E946E220E94EF242B013C01B601DD0C71
:101F8000880B990B0E948E23A30192010E94822448
:101F90000E9456238501BB0C220B330BAB01BC0105
:101FA000400F511F621F731FC4010E9431099B0122
:101FB000AC01AD8100CF60E070E0CB01DBCF1296C9
:101FC000CD90DC901397CC0CDD1C1D96ED90FC9011
:101FD0001E97D596ED91FC91D6979B964D915C916D
:101FE0009C97D1962D913C91D297D1960D911C91B1
:101FF000429FC001439F900D529F900D11246FEF9F
:1020000070E00E945025CB0170E060E02F013B01A1
:10201000480E591E611C711CC301B20150E040E022
:102020000E943C222B013C01CE18DF08C701880F1B
:10203000991F880F991FB8010E94502590E080E0F9
:1020400098013695279550E040E024153505460562
:102050005705DCF430E020E0A90198012419350986
:10206000460957090E9440258601DD0C220B330BDF
:10207000AB01BC01400F511F621F731FC4010E94BE
:1020800031099B01AC01AE8196CEA3019201EACF4A
:102090001296CD90DC901397CC0CDD1C1D960D9103
:1020A0001C911E97D596ED91FC91D6979B964D91DC
:1020B0005C919C97D1962D913C91D297D196ED90C1
:1020C000FC902901712C612C429FC001439F900D0F
:1020D000529F900D11246FEF70E00E9450259B01DC
:1020E000BF0190E080E0620F731F811D911DA3016D
:1020F00092010E943C22461A570A680A790AC01ABD
:10210000D10AC801880F991FB7010E945025DB0131
:10211000A30192010E9431228601DD0C220B330BB8
:10212000AB01BC01400F511F621F731FC4010E940D
:1021300031099B01AC01AF813ECEF401C280D38056
:10214000CC0CDD1C0585168505A8F6A9E02D9B960F
:102150004D915C919C97D1962D913C91D297D196BF
:10216000ED90FC90429FC001439F900D529F900DB7
:1021700011246FEF70E00E945025CB0170E060E009
:102180002F013B01480E591E611C711CC301B20195
:1021900050E040E00E943C222B013C01C01AD10AD1
:1021A000C801880F991FB7010E945025DB01A301C8
:1021B00092010E9431228601DD0C220B330BAB0110
:1021C000BC01400F511F621F731FC4010E943109DF
:1021D0009B01AC01A885EFCD68A579A58AA59BA533
:1021E0000E948E236B017C016CA17DA18EA19FA119
:1021F0000E948E239B01AC01C701B6010E94E4221C
:10220000AB01BC01212FC4010E94E7049B01AC017A
:10221000A985B0E00E9431226B017C010111CECD75
:1022200058C068A979A98AA99BA90E948E236B012D
:102230007C016CA57DA58EA59FA50E948E239B0188
:10224000AC01C701B6010E94E422AB01BC01212F01
:10225000C4010E94E7049B01AC01AA85DACF68ADF6
:1022600079AD8AAD9BAD97FF93C0BB844CA85DA8A8
:102270006EA87FA8F7FE5EC00E948E236B017C01D2
:10228000C301B2010E948E239B01AC01C701B601BC
:102290000E94E4226B017C0120E030E0A9010E9451
:1022A0007D24181624F0F7FAF094F7F8F094212F13
:1022B000B701A601C4010E94E7049B01AC01AB2D4C
:1022C000B0E00E9431226B017C01C701B60101110F
:1022D00075CD2FB7F8948091DD069091DE06A09120
:1022E000DF06B091E0062FBFF40107A910AD21ADC4
:1022F00032AD43AD54AD65AD76AD801B910B96AB61
:1023000085ABC701B60161960FB6F894DEBF0FBE6C
:10231000CDBFDF91CF911F910F91FF90EF90DF9094
:10232000CF90BF90AF909F908F907F906F905F9075
:102330004F900895C114D104E104F10431F20E94D8
:102340008E236B017C01C301B2010E948E239B018D
:10235000AC01C701B6010E94E4226B017C0120E0C0
:1023600030E0A9010E947D24181624F0F7FAF094B9
:10237000F7F8F094212FB701A601C4010E94E704E9
:1023800022273327A901261B370B480B590B97CF60
:10239000C12CD12C760199CFC701B6010E948E23A2
:1023A0006B017C016CAD7DAD8EAD9FAD0E948E2327
:1023B0009B01AC01C701B6010E94E422AB01BC0144
:1023C000212FC4010E94E7049B01AC01AC8521CF01
:1023D000C12CD12C76017DCF0F931F93CF93DF9328
:1023E000CDB7DEB72A970FB6F894DEBF0FBECDBFCC
:1023F000DC0112964C911297FB0124813581421722
:10240000130609F03FC08C0191818081813AE1F58A
:102410009130A9F59381933099F482818630E1F46B
:102420008FEC97E00197F1F700C0000008531C4FB4
:1024300045E050E0B80180E40E94FB06D8011C9200
:1024400081E02A960FB6F894DEBF0FBECDBFDF91B4
:10245000CF911F910F910895873091F789832FEFC6
:102460003FEF3B832A838EE08C839D8345E050E0E1
:10247000BE016F5F7F4F80E40E94FB06E1CF81E0E9
:102480009330F9F280E0DDCF8132E1F79B3031F417
:102490008281FD01E65EFB4F8083D2CF9A3029F422
:1024A0008281FD01E55EFB4FF7CF993059F78381BB
:1024B000833031F686819781892B39F470E060E0B2
:1024C000CE0101960E940808BBCF8281853009F0B9
:1024D000B7CF64E070E0CE0101960E94080886E064
:1024E000F801E853FC4F8083F80182858E3069F152
:1024F000828591E0980F92872FE3D8011A969C91DC
:10250000F801299FE00DF11D11249385992341F0D5
:10251000F80192859E3020F492859F5F9287EDCFDF
:1025200091E0F8012FE3829FE00DF11D11249387C4
:10253000F801E753FC4F80838081D801A653BC4F3C
:10254000811105C082E08C937BCF80E0F1CF21E048
:102550002C9380813FE3839FC0011124F801E80F91
:10256000F91F3B96DF011D923A95E9F7800F911F05
:10257000FC012387F801E553FC4F80819181CF97BF
:10258000918380835DCFFF920F931F93CF93DF934F
:10259000EC01F62E08811981C8010E94FC21F81671
:1025A00021F06F2DC8010E940422CE01DF91CF914E
:1025B0001F910F91FF900895EF92FF920F931F9339
:1025C000CF93DF9300D0CDB7DEB78C017B019A8328
:1025D0008983FB016081CE0101960E94C3120F5FC7
:1025E0001F4F1A830983F7016181CE0101960E9472
:1025F000C312C7010F900F90DF91CF911F910F91E0
:10260000FF90EF9008951F920F920FB60F92112432
:102610002F933F938F939F93AF93BF938091DD064A
:102620009091DE06A091DF06B091E0063091D806C9
:1026300023E0230F2D3758F50196A11DB11D2093DE
:10264000D8068093DD069093DE06A093DF06B09354
:10265000E0068091D9069091DA06A091DB06B09150
:10266000DC060196A11DB11D8093D9069093DA0670
:10267000A093DB06B093DC06BF91AF919F918F9141
:102680003F912F910F900FBE0F901F90189526E845
:10269000230F0296A11DB11DD2CF1F920F920FB62C
:1026A0000F9211242F933F934F935F936F937F93D8
:1026B0008F939F93AF93BF93EF93FF93E091280184
:1026C000F09129010995FF91EF91BF91AF919F91F1
:1026D0008F917F916F915F914F913F912F910F90CB
:1026E0000FBE0F901F9018951F920F920FB60F926A
:1026F00011242F933F934F935F936F937F938F9307
:102700009F93AF93BF93EF93FF93E0912601F091D6
:1027100027010995FF91EF91BF91AF919F918F9103
:102720007F916F915F914F913F912F910F900FBECD
:102730000F901F9018951F920F920FB60F921124B1
:102740002F933F934F935F936F937F938F939F93B9
:10275000AF93BF93EF93FF93E0912401F091250194
:102760000995FF91EF91BF91AF919F918F917F91CB
:102770006F915F914F913F912F910F900FBE0F90EE
:102780001F9018951F920F920FB60F9211242F933E
:102790003F934F935F936F937F938F939F93AF93E9
:1027A000BF93EF93FF93E0912201F09123010995EC
:1027B000FF91EF91BF91AF919F918F917F916F9119
:1027C0005F914F913F912F910F900FBE0F901F90EF
:1027D00018951F920F920FB60F9211242F933F93CB
:1027E0004F935F936F937F938F939F93AF93BF9319
:1027F000EF93FF93E0912001F09121010995FF9162
:10280000EF91BF91AF919F918F917F916F915F9168
:102810004F913F912F910F900FBE0F901F901895E1
:102820001F920F920FB60F9211248F939F93809156
:10283000E1009091E100937F9093E10083FF0FC04E
:102840001092E90091E09093EB001092EC0092E37B
:102850009093ED0010924B0698E09093F00082FF69
:1028600022C093E09093E9009091F200992319F02F
:102870009AE39093E80090914806992341F0909153
:102880004806915090934806911101C05D9A90912D
:102890004706992341F0909147069150909347063F
:1028A000911101C0289A84FF18C08091E2008E7EA9
:1028B00081608093E2008091E1008F7E8093E1004F
:1028C000809149068E7E8061809349069F918F9109
:1028D0000F900FBE0F901F90189580FFF7CF80913B
:1028E000E2008E7E80618093E2008091E1008E7E26
:1028F0008093E100809149068E7E8160E5CF1F9232
:102900000F920FB60F921124CF92DF92EF92FF92A7
:102910000F931F932F933F934F935F936F937F93E7
:102920008F939F93AF93BF93EF93FF93CF93DF93D7
:10293000CDB7DEB76C97DEBFCDBF1092E9008091B6
:10294000E80083FF25C068E0CE0145960E94FB07A2
:1029500082EF8093E8008D8987FF39C09091E8006D
:1029600090FFFCCF982F907609F034C19E894F8953
:10297000588D2F89F88C911131C0803861F5809184
:102980004A068093F1001092F1008EEF8093E800E8
:102990006C960FB6F894DEBF0FBECDBFDF91CF911E
:1029A000FF91EF91BF91AF919F918F917F916F9127
:1029B0005F914F913F912F911F910F91FF90EF9059
:1029C000DF90CF900F900FBE0F901F9018959EEF45
:1029D0009093E800C7CF1092F100D5CF913059F411
:1029E0008111D3CF4130510581F680914A068D7F08
:1029F00080934A06CACF933049F48111C6CF413043
:102A0000510519F680914A068260F2CF953041F463
:102A10008091E80080FFFCCF20682093E300B5CFD1
:102A2000963009F0A9C00B8D1C8D22E01092E900B0
:102A30001092450610924406F2122EC010924306E0
:102A4000109242060E944F081F8299E09983FA82F1
:102A500091E09E8390EA98879AEF998720914406A7
:102A600030914506275F3F4F3C832B838D83109227
:102A7000E900109245061092440610934306009315
:102A8000420649E050E0BE016F5F7F4F80E00E9448
:102A9000FB060E944F0879CF10934306009342062D
:102AA0000E943B08DC0112960D911C910115110545
:102AB00009F44BC1D801ED91FC910480F581E02D22
:102AC000BE016B5E7F4FC8010995009709F038C1C0
:102AD000F80100851185EACFF3E0FF120EC08F895F
:102AE000882309F440C0823061F440E860E18EE25E
:102AF00091E00E94C806811148CF81E28093EB00EB
:102B000047CF813029F440E86BE082E291E0F1CFD9
:102B1000833099F70E943B08DC011296ED90FC90FF
:102B20008E010F5F1F4F6801E114F10479F0D701A6
:102B3000ED91FC910680F781E02DB801C701099560
:102B4000080F111DF701E084F184EECFD8011C922B
:102B5000F60101900020E9F73197BF016C197D095A
:102B600040E0C601C6CF6CE071E0FB01449150E04B
:102B700080E80E94FB0609CF973009F4BECF983059
:102B800021F481E08093F10000CF993009F0FDCE6F
:102B9000837009F0B2CFEEE0F1E081E031E096E33E
:102BA0002191222371F08093E9003093EB00DF0143
:102BB00011972C912093EC009093ED008F5F87305C
:102BC00079F78EE78093EA001092EA008F8980936C
:102BD0004B06DBCE8B8D9C8D1092E9001092450642
:102BE000109244069093430680934206898D81118A
:102BF0008CC08E899D89913A49F4813209F07DCF4C
:102C000047E050E068E171E080E0B3CF913209F035
:102C100074CF833269F48F89988DB0E0A0E08093FF
:102C2000140190931501A0931601B0931701ADCE36
:102C3000803239F467E070E088E191E00E94080892
:102C4000A4CE823209F0A1CE8F8980931F01EEEFCE
:102C5000FFE7859194918B3F9C4D51F1E0E0F8E0C6
:102C60008091180190911901A0911A01B0911B0156
:102C7000803B9440A105B105F1F480911F0180FDD6
:102C80001AC0EE3F8AE0F80789F587E797E7918356
:102C90008083809160008093460688E19BE00FB6B8
:102CA000F894A895809360000FBE909360006DCE5D
:102CB000EEEFFAE0D5CF808191818737974709F011
:102CC00064CEA895809160008861809360008091B7
:102CD000460680936000EE3F2AE0F20789F080917B
:102CE000FE0A9091FF0A918380834FCE808191816B
:102CF0008737980751F29093FF0A8093FE0AC5CF59
:102D00001092FF0A1092FE0A40CE0E943B08DC019E
:102D100012960D911C910115110509F4EECED80102
:102D2000ED91FC910190F081E02DBE016B5E7F4F33
:102D3000C8010995811129CEF80100851185EBCFD5
:102D4000181619060CF421CED8CEF1E0FF12C4CE2D
:102D500060E171E00ACF1F920F920FB60F9211241B
:102D6000FF920F931F932F933F934F935F936F9314
:102D70007F938F939F93AF93BF93CF93DF93EF9303
:102D8000FF930E94FB0AEC018B818F5F0E94F20788
:102D9000882309F445C08E010A521C4F8B8140E400
:102DA00050E0B8018F5F0E94C8079E01265F3F4F29
:102DB000FE01E952FC4F9081D801EC91E150ED30D9
:102DC00078F5F0E0EA51F94E0C947825F3162617C1
:102DD0004217771793179E17101710171017AE1773
:102DE0001B183E186218F80123813481FFE39F9F6E
:102DF000C00DD11D11243FAF2EAF1C968C911C9796
:102E00008B8F1D968C911D978C8F12968C9112979B
:102E10008C8719968C9119978F871B968C918A8F26
:102E2000FF91EF91DF91CF91BF91AF919F918F91E2
:102E30007F916F915F914F913F912F911F910F91D2
:102E4000FF900F900FBE0F901F901895F8012281F0
:102E50003381FFE39F9FC00DD11D1124398B288B37
:102E600014968D919C9115979B8B8A8B16968D91BC
:102E70009C9117979F8B8E8B1A968D919C919D8B11
:102E80008C8BCECFF801428123813481FFE39F9F59
:102E9000C0011124FC015CE0459FE00DF11D1124EF
:102EA000EC0FFD1F378F268F15962D913C911697AD
:102EB00031A320A317962D913C91189733A322A3F9
:102EC00019962D913C911A9735A324A31B962D9109
:102ED0003C911C9737A326A31D962D913C9131A7B9
:102EE00020A7C80FD91F8D8D8F5F8D8F99CFF801C7
:102EF00022813381FFE39F9FC00DD11D1124398FA3
:102F0000288F14968D919C9115979E878D87169684
:102F10008D919C9117979FAB8EAB18968D919C913C
:102F20009DAF8CAF7DCFF80122813381FFE39F9F5E
:102F3000C00DD11D1124398F288F72CF12962D917B
:102F40003C91BFE39B9FC00DD11D112439AF28AF29
:102F5000F801848195819BAF8AAF62CF1296FC9075
:102F6000B1E0FB123EC0F80183818823A9F0FE0185
:102F70002FE3929FE00DF11D112446AD57AD849FC4
:102F80009001859F300D112437AF26AF8F3F21F47C
:102F90002FEF3FE737AF26AF9F3008F041CF3FE339
:102FA000939FC00DD11D112482E08B87FE01E05C50
:102FB000FF4F118210828FB7F8940091DD061091B7
:102FC000DE062091DF063091E0068FBFCE5BDF4F3B
:102FD000088319832A833B831C821D821E821F82E1
:102FE0001FCF52E0F51210C0C9010E94140AD80187
:102FF00011968C918F3008F013CFBFE38B9FC00DDB
:10300000D11D1124FB86D2CFE3E0FE1209CF9F3001
:1030100008F006CFFE012FE3929FE00DF11D112471
:1030200083858D7F8387C553DC4F88819981CF96B7
:1030300099838883F5CE9F3F89F481E08A87FE01DA
:103040003B9681EB93E0DF019C011D9221503040C3
:10305000E1F7C553DC4F82E793E0EACF9F3008F0F9
:10306000DFCEFE013FE3939FE00DF11D1124138697
:103070008A85981708F0D4CE9A87D2CE913031F451
:10308000CA53DC4F888182608883CACE923029F48B
:10309000CA53DC4F88818D7FF7CF933021F4C9016B
:1030A0000E94140ABDCE943041F2953021F4C454EC
:1030B000DC4F81E0E9CF963009F0B2CEC454DC4F4A
:1030C0001882AECECD52DC4F9883AACE0F931F93B9
:1030D000CF93DF931092E4061092E30688EE93E01C
:1030E000A0E0B0E08093E5069093E606A093E706A3
:1030F000B093E80680E691E09093E2068093E106C3
:103100008FEF9FEF9093EE068093ED061092E2070B
:103110001092E1071092E5071092EA071092E90772
:103120008FEF93E09093EC078093EB071092EE07FC
:103130001092ED079093F0078093EF071092F2073B
:103140001092F1079093F4078093F3071092F6071B
:103150001092F5079093F8078093F7071092FA07FB
:103160001092F9079093FC078093FB071092FE07DB
:103170001092FD07909300088093FF0710920208B9
:103180001092010890930408809303081092060897
:1031900010920508909308088093070810920A0877
:1031A0001092090890930C0880930B0810920E0857
:1031B00010920D089093100880930F081092120837
:1031C00010921108909314088093130881E0809363
:1031D0001B088093150848E04093E4071092E60727
:1031E0008093E7071092E80735E03093310780932A
:1031F000320799E09093330724E02093340721EAC3
:1032000020933507809336079093370780933807CC
:1032100055E85093390780933A0720933B07109263
:103220003C0730933D0790933E0759E150933F0789
:103230008093400759E2509341074093420755E17C
:10324000509343071092440755E2509345078093EB
:10325000460775E7709347078093480765E96093D1
:10326000490740934A0745E540934B0710924C07A6
:1032700045E640934D0710924E0751E850934F0793
:1032800042E0409350073093510780935207909348
:1032900053078093540736E13093550780935607C0
:1032A00030E83093570736E2309358073FEF3093BA
:1032B00059073FE730935A0770935B0730E130932B
:1032C0005C0760935D0780935E0720935F07109211
:1032D00060079093610780E38093620750936307D0
:1032E0004093640780EC809365078093660786E3CC
:1032F00090E00E9485258C0186E3E1E3F7E0D801A8
:1033000001900D928A95E1F78BE090E00E9485256F
:10331000EC01198218821B830A8386E293E09D8365
:103320008C8386E390E09F838E838BEC94E0998777
:1033300088871A860E94FB0ADC01AA5EBB4FED91CA
:10334000FC911197309709F07EC0CD93DC93FC017E
:10335000E85EFB4F808191812E813F81820F931F18
:103360009183808328853985820F931F9183808381
:103370009091E407892F869586958695977009F038
:103380006AC08093E507C091E5078C2F90E0009715
:1033900011F481E090E00E9485259093E2078093EC
:1033A000E10781E09091E607911101C080E0CE5FD6
:1033B0008C0F809316081092C8071092C7071092BE
:1033C000CA071092C9071092CC071092CB0710922F
:1033D000CE071092CD071092D0071092CF0710920F
:1033E000D2071092D1071092D4071092D3071092EF
:1033F000D6071092D5071092D8071092D7071092CF
:10340000DA071092D9071092DC071092DB078FEFD2
:103410009FEF9093DE078093DD079093E007809302
:10342000DF0790E080E02091E50728171906A9F052
:10343000A4F0E091E107F091E207E80FF91F108294
:103440000196F1CFF9012081318121153105D1F7A4
:10345000D183C0837CCF8F5F94CFDF91CF911F91B9
:103460000F910895CF93DF93CDB7DEB76D970FB669
:10347000F894DEBF0FBECDBF789484B5826084BD62
:1034800084B5816084BD85B5826085BD85B5816068
:1034900085BD80916E00816080936E0010928100E6
:1034A00080918100826080938100809181008160A1
:1034B0008093810080918000816080938000809162
:1034C000910082608093910080919100816080934F
:1034D0009100809190008160809390008091C10064
:1034E00084608093C1008091C10082608093C1009C
:1034F0008091C10081608093C1008091C300816090
:103500008093C3008091C00082608093C00080914E
:10351000C20081608093C20080917A0084608093B1
:103520007A0080917A00826080937A0080917A009C
:10353000816080937A0080917A00806880937A001D
:1035400010924B0610924A06109249068091D700BD
:1035500081608093D70080EA8093D80089B580612C
:1035600089BD89B5826089BD09B400FEFDCF0E9486
:103570004F068091D8008F7C80618093D800809125
:10358000E000807F8093E0008091E1008E7E809358
:10359000E1008DE08093E200559A209A8FEF9FEF33
:1035A0009093EE068093ED0662E080E00E94F905BC
:1035B00062E081E00E94F90589B190E095958795D8
:1035C00095958795837080934C0627E636E0309377
:1035D000250120932401809169008F7C8061809374
:1035E0006900EA9A309327012093260180916900AF
:1035F0008F73806480936900EB9A61E089E00E9498
:10360000F90561E08AE00E94F90561E088E00E9426
:10361000F90561E08BE00E94F90588E00E9424042E
:103620008BE00E94240480EA8093800081E18093F3
:10363000810084EF91E09093870080938600109240
:1036400089001092880010928B0010928A0090E0FE
:1036500080E00E94FC218E8781E090E00E94FC21A6
:103660008F8782E090E00E94FC21888B83E090E0CD
:103670000E94FC21898B8E859F85A889B989019735
:10368000A14BBF4F09F00DC1BE016C5E7F4F84E0BE
:1036900090E00E94EE0B8C899D89019709F001C191
:1036A000CE0101960E94D20BBE016E5E7F4F83E178
:1036B00090E00E94EE0BFE0131969E01225F3F4F8B
:1036C00090E080E04191840F911D2E173F07D1F7C4
:1036D0002A893B892817390709F0E3C08BEC96E06B
:1036E0000E94D20B8DE0EBECF6E0ADE4B6E0019089
:1036F0000D928A95E1F780E090E89093EA07809335
:10370000E9078FEF9FE79093EC078093EB07109208
:10371000E3070E94A80C0E94910BF894109290006D
:103720001092910010929500109294008FE99FE002
:103730009093990080939800809191008860809385
:10374000910080919100826080939100809171003E
:1037500082608093710078948FE391E00E94790CED
:10376000AA24A394B12C81EE96E00E9421094C0179
:10377000892B09F49AC281EE96E00E94D708E09165
:103780009A068A3019F08D3009F083C2EE2359F37E
:10379000F0E0E65AF94F108261E771E08AE596E0C1
:1037A0000E94B326892B09F07FC083E692E00E9435
:1037B000790C8CE592E00E94AC088091D1060E94C1
:1037C000850C81E592E00E94AC088091D2060E94AF
:1037D000850C88E492E00E94AC088091D3060E9498
:1037E000850C8EE392E00E94AC088091D4060E9482
:1037F000850C86E392E00E94AC088091D5060E9479
:10380000850C8FE292E00E94AC086091CF06709127
:10381000D00690E080E04AE00E94020C0E94710C09
:1038200087E292E00E94AC086091CB067091CC06D2
:103830008091CD069091CE060E94960C8EE192E08A
:103840000E94790C81E192E00E94AC088091D6063A
:103850000E94850C86E092E00E94AC088091D70619
:103860000E94850C8DEE91E00E94790C81EE91E032
:103870000E94AC088BED91E00E94790C89EB91E0FD
:103880000E94790C8AE991E00E94790C8EE791E020
:103890000E94790C81E791E00E94790C10929A06BF
:1038A00062CF0E94B20B27CF6EE771E08AE596E007
:1038B0000E94B326892B09F060C0F894C0909B0643
:1038C000D0909C06E0909D06F0909E067894009122
:1038D000CF061091D0068091CB069091CC06A09196
:1038E000CD06B091CE06A7019601281B390B4A0BD5
:1038F0005B0B8091D606882339F050954095309522
:1039000021953F4F4F4F5F4FA3E0B0E00E9431221F
:1039100024E130E040E050E00E9412221695079525
:10392000021713070CF4980111950195110902175C
:1039300013070CF4890186E691E00E94790C8AE570
:1039400091E00E94AC08B801012E000C880B990B85
:1039500017FF0FC00E94500C0E94710C8EE491E082
:103960000E94AC08C701B6010E94960C85E491E064
:1039700093CF4AE00E94020CEFCF6DE871E08AE538
:1039800096E00E94B326892B61F48DE0EDE4F6E029
:10399000ABECB6E001900D928A95E1F78AEA92E0ED
:1039A0007BCF63E971E08AE596E00E94B326892B1C
:1039B00009F051C081E090E0A1EBBFEF89839A83C9
:1039C000AB83BC83BD8AAC8A0BEC16E0F80190E0B7
:1039D00080E02191820F911DA6E0E83DFA07C9F72A
:1039E0009B8B8A8BFE0131966F01F12CE12CFF86B7
:1039F000EE86D6016D916D01CE010E960E94C31226
:103A0000BFEFEB1AFB0AE4E0EE16F10481F7BE010A
:103A10006C5E7F4F84E090E00E94DC1276E0E72E3F
:103A2000F12CFF86EE86D8016D918D01CE010E96A8
:103A30000E94C312BFEFEB1AFB0AE3E1EE16F1049A
:103A400081F7BE016E5E7F4F83E190E00E94DC1241
:103A500087EA92E021CF68E971E08AE596E00E946A
:103A6000B326892B29F40E94B20B84EA92E014CF8A
:103A700066EA71E08AE596E00E94B326892B41F060
:103A800065EB71E08AE596E00E94B326892BE9F4A4
:103A9000F89480919B0690919C06A0919D06B09110
:103AA0009E0678948093CB069093CC06A093CD0687
:103AB000B093CE0680934D0690934E06A0934F068A
:103AC000B093500681EA92E0E7CE60EC71E08AE5BF
:103AD00096E00E94C50B882309F4D8C069EC71E018
:103AE0008EE596E00E94C50B882391F084E696E06F
:103AF0000E949A2197FD08C0853691053CF4809379
:103B0000530688E892E0C8CE80E0F9CF84E6F7CF8C
:103B100065EC71E08EE596E00E94C50B882381F08C
:103B200088E696E00E949A2197FD06C085369105A9
:103B30002CF480935406E5CF80E0FBCF84E6F9CFE8
:103B400060ED71E08EE596E00E94C50B882381F060
:103B500086E696E00E949A2197FD06C0853691057B
:103B60002CF480935506CDCF80E0FBCF84E6F9CFCF
:103B700069ED71E08EE596E00E94C50B882381F027
:103B800087E696E00E949A2197FD06C0853691054A
:103B90002CF480935606B5CF80E0FBCF84E6F9CFB6
:103BA00063EE71E08EE596E00E94C50B882381F0FC
:103BB00085E696E00E949A2197FD06C0853691051C
:103BC0002CF4809357069DCF80E0FBCF84E6F9CF9D
:103BD0006BEE71E08EE596E00E94C50B8823C1F084
:103BE00084E696E00E949A218A3591055CF089303E
:103BF000F7E09F0754F4282F892F209351068093D4
:103C000052067FCF2AE580E0F8CF28E087E0F5CFA5
:103C100062EF71E08EE596E00E94C50B882369F0A3
:103C200085E696E00E94B82160934D0670934E069B
:103C300080934F069093500664CF6AEF71E08EE553
:103C400096E00E94C50B882359F08AE696E00E9410
:103C50009A2121E0892B09F420E02093580651CFC6
:103C600067E072E08EE596E00E94C50B882359F06C
:103C700088E696E00E949A2121E0892B09F420E051
:103C8000209359063ECF8BE892E006CE82E792E081
:103C900003CEEF3308F067CD91E09E0F90939A0624
:103CA000F0E0E65AF94F80835ECDF89440909B0691
:103CB00050909C0660909D0670909E0678940091AE
:103CC000CF061091D0068091CB069091CC06A091A2
:103CD000CD06B091CE06A3019201281B390B4A0BE9
:103CE0005B0B8091D606882339F05095409530952E
:103CF00021953F4F4F4F5F4F1695079501151105C1
:103D000009F4A9C2A3E0B0E00E94312224E130E02E
:103D100040E050E00E941222021713070CF49801B1
:103D2000AA27BB27A01BB10BA217B3070CF4D9011C
:103D30002FEF3FE70E947E259801110F440B550B92
:103D40000E941222211580E838078FEF4807580794
:103D500024F420E030E84FEF5FEF211590E83907B9
:103D60004105510524F02FEF3FE740E050E030934C
:103D7000C8072093C7078091E30781110E94A80C10
:103D80008091CB069091CC06A091CD06B091CE0645
:103D9000481A590A6A0A7B0A8091D606882341F09C
:103DA0007094609450944094411C511C611C711C8F
:103DB0008091C7069091C8067201E81AF90A8091AD
:103DC000C3069091C4068701081B190B2091CF06EA
:103DD0003091D006A0E6B9E00E945E2220ED32E0EC
:103DE00040E050E00E9412222115310541055105A5
:103DF00021F421E030E040E050E0D301C201281777
:103E000039074A075B0714F4DA01C9014424552431
:103E10003201421A530A640A750A481659066A069C
:103E20007B0614F42C013D012093A3063093A406D5
:103E30004093A5065093A6064092A7065092A80666
:103E40006092A9067092AA0688EC90E0A0E0B0E02B
:103E50008093AB069093AC06A093AD06B093AE06EC
:103E60009701FF0C440B550B2E8B3F8B488F598FBE
:103E70002093AF063093B0064093B1065093B2063C
:103E800044E650E060E070E04093B3065093B4061F
:103E90006093B5067093B606012E000C220B330B0F
:103EA0000093B7061093B8062093B9063093BA066C
:103EB0008093BB069093BC06A093BD06B093BE064C
:103EC0008E899F89A88DB98D8093BF069093C00677
:103ED000A093C106B093C2060E94910B83EA96E0BC
:103EE00090931A088093190810929F061092A006CA
:103EF0001092A1061092A2061092A3061092A40698
:103F00001092A5061092A6060E94FB0A1C019FE3D0
:103F1000989DF001999DF00D1124E20DF31D83850C
:103F2000823009F0DFC0DF01A05CBF4F2D913C91D2
:103F300086AD97AD8217930730F486AD97AD8F3F6E
:103F40009F4709F0CFC00E94FB0A84549C4FFC019C
:103F500080818111C7C0FFE3F89DC001F99D900DDC
:103F600011240B96280E391E80911708909118087D
:103F70001F92E0911908F0911A082DB73EB7205210
:103F800031090FB6F8943EBF0FBE2DBFADB7BEB717
:103F9000119620E201900D922A95E1F7DC01AC9098
:103FA0001196BC9011971296CC9012971396DC90B4
:103FB00013971496EC9014971596FC9015971696F7
:103FC0000C91169717961C91179718962C91189785
:103FD00019963C9119971A964C911A971B965C91D9
:103FE0001B971C966C91C1010E94400E00919F0688
:103FF0001091A0062091A1063091A206DC01CB0110
:10400000800F911FA21FB31F80939F069093A0065D
:10401000A093A106B093A2060FB6F894DEBF0FBE20
:10402000CDBF8091170890911808F1E0FF93E091BF
:104030001908F0911A082DB73EB7205231090FB672
:10404000F8943EBF0FBE2DBFADB7BEB7119620E2AC
:10405000B09601900D922A95E1F7DC011D96AC9087
:104060001D971E96BC901E971F96CC901F9750963A
:10407000DC9050975196EC9051975296FC90529745
:1040800053960C91539754961C91549755962C9196
:10409000559756963C91569757964C9157975896E8
:1040A0005C91589759966C91C1010E94400E009105
:1040B000A3061091A4062091A5063091A606DC0166
:1040C000CB01800F911FA21FB31F8093A306909373
:1040D000A406A093A506B093A6060FB6F894DEBF7B
:1040E0000FBECDBFFFEF8F1A9F0A2EE082169104FC
:1040F00009F00ACFA0901708B09018086091A306A5
:104100007091A4068091A5069091A6060E948E2328
:104110006B017C01D5011D966C9170E090E080E010
:104120000E948E239B01AC01C701B6010E9482242C
:1041300020E030E44CE156E40E94E4220E94562341
:104140006A8F7B8F8C8F9D8F60919F067091A006E8
:104150008091A1069091A2060E948E236B017C01A2
:10416000F501608170E090E080E00E948E239B0169
:10417000AC01C701B6010E94822420E030E44CE18A
:1041800056E40E94E4220E9456239B01AC01205F6A
:10419000384D4F4F5F4FA4EFB1E00E94312220E233
:1041A000C22E2EE4D22EE12CF12CA70196010E9402
:1041B000122249015A01FAEF8F1A9108A108B10899
:1041C00080929F069092A006A092A106B092A206AD
:1041D0002A8D3B8D4C8D5D8D205F384D4F4F5F4F4D
:1041E000A4EFB1E00E943122A70196010E941222A1
:1041F0002A5F3109410951092093A3063093A4068F
:104200004093A5065093A606A4EFB1E0A501940142
:104210000E9431222FEF30E040E050E00E94122255
:10422000253F81E0380741055105C4F42C309EEF4D
:1042300039079FEF49075907A4F08091D206A5E0FE
:104240008A9FC00111241216130674F42817390727
:10425000A4F49C0112C030E020E089CD24EF31E0CD
:10426000ECCF2CE03EEFE9CF2115310531F09195EF
:10427000819591098217930764F38091D70688236B
:1042800019F03195219531098091D1068823D9F112
:10429000253FB1E03B078CF52C30EEEF3E07E4F113
:1042A000121613066CF510928B0010928A00309350
:1042B0008900209388000E94A80C2E893F89488D90
:1042C000598D2093C3063093C4064093C50650937E
:1042D000C6064092C7065092C8066092C906709200
:1042E000CA068BEC97E00197F1F780E090E0892B0C
:1042F00009F436CA0E94000033CA24EF31E0D3CF5C
:104300002115310559F410928900109288001092FD
:104310008B0010928A00CFCF2CE03EEF10928900E4
:104320001092880031952195310930938B002093AC
:104330008A00C1CFFC0188279927E8942191203277
:10434000E9F3293010F02E30C8F32B3241F02D3232
:1043500039F4689404C00E94F421820F911D2191C8
:1043600020532A30C0F31EF4909581959F4F0895F5
:104370001F93FC0199278827BC01E8941191103202
:10438000E9F3193010F01E30C8F31B3251F01D3222
:1043900049F4689406C00E94DF21610F711D811DE0
:1043A000911D119110531A30B0F33EF49095809501
:1043B000709561957F4F8F4F9F4F1F910895592F93
:1043C000482F372F262F660F771F881F991F660FDC
:1043D000771F881F991F620F731F841F951F660F19
:1043E000771F881F991F08957AE0979F902D879FC8
:1043F000802D910D11240895F999FECF92BD81BDB4
:10440000F89A992780B50895262FF999FECF1FBAFB
:1044100092BD81BD20BD0FB6F894FA9AF99A0FBEED
:1044200001960895052E97FB1EF400940E94292200
:1044300057FD07D00E943C2207FC03D04EF40C9499
:10444000292250954095309521953F4F4F4F5F4F12
:10445000089590958095709561957F4F8F4F9F4FF0
:1044600008950E945E22A59F900DB49F900DA49F79
:10447000800D911D11240895A1E21A2EAA1BBB1BC9
:10448000FD010DC0AA1FBB1FEE1FFF1FA217B30720
:10449000E407F50720F0A21BB30BE40BF50B661F36
:1044A000771F881F991F1A9469F7609570958095FA
:1044B00090959B01AC01BD01CF010895A29FB00171
:1044C000B39FC001A39F700D811D1124911DB29F48
:1044D000700D811D1124911D08955058BB27AA27E6
:1044E0000E9485220C942F240E94F62338F00E940B
:1044F000FD2320F039F49F3F19F426F40C94F323A4
:104500000EF4E095E7FB0C94ED23E92F0E94542470
:1045100058F3BA17620773078407950720F079F4F8
:10452000A6F50C9476240EF4E0950B2EBA2FA02D50
:104530000B01B90190010C01CA01A0011124FF2750
:10454000591B99F0593F50F4503E68F11A16F0404B
:10455000A22F232F342F4427585FF3CF469537954A
:104560002795A795F0405395C9F77EF41F16BA0B0F
:10457000620B730B840BBAF09150A1F0FF0FBB1FBD
:10458000661F771F881FC2F70EC0BA0F621F731F06
:10459000841F48F4879577956795B795F7959E3F63
:1045A00008F0B0CF9395880F08F09927EE0F9795F4
:1045B000879508950E94C92308F481E008950E9418
:1045C0000624E3950C9440240E94F8220C942F2496
:1045D0000E94FD2358F00E94F62340F029F45F3F2B
:1045E00029F00C94ED2351110C9477240C94F323AF
:1045F0000E94542468F39923B1F3552391F3951B3A
:10460000550BBB27AA2762177307840738F09F5FF3
:104610005F4F220F331F441FAA1FA9F335D00E2E60
:104620003AF0E0E832D091505040E695001CCAF7CD
:104630002BD0FE2F29D0660F771F881FBB1F261790
:1046400037074807AB07B0E809F0BB0B802DBF0167
:10465000FF2793585F4F3AF09E3F510578F00C9436
:10466000ED230C9477245F3FE4F3983ED4F38695D2
:1046700077956795B795F7959F5FC9F7880F911D57
:104680009695879597F90895E1E0660F771F881F43
:10469000BB1F621773078407BA0720F0621B730BF6
:1046A000840BBA0BEE1F88F7E09508950E945D23F6
:1046B0006894B1110C94772408950E945C2488F0CA
:1046C0009F5798F0B92F9927B751B0F0E1F0660FD6
:1046D000771F881F991F1AF0BA95C9F714C0B13017
:1046E00091F00E947624B1E008950C947624672F0F
:1046F000782F8827B85F39F0B93FCCF38695779546
:104700006795B395D9F73EF490958095709561952E
:104710007F4F8F4F9F4F0895E89409C097FB3EF459
:1047200090958095709561957F4F8F4F9F4F9923FE
:10473000A9F0F92F96E9BB279395F695879577957C
:104740006795B795F111F8CFFAF4BB0F11F460FF3C
:104750001BC06F5F7F4F8F4F9F4F16C0882311F094
:1047600096E911C0772321F09EE8872F762F05C0A8
:10477000662371F096E8862F70E060E02AF09A9543
:10478000660F771F881FDAF7880F9695879597F938
:104790000895990F0008550FAA0BE0E8FEEF1616D2
:1047A0001706E807F907C0F012161306E407F50725
:1047B00098F0621B730B840B950B39F40A2661F099
:1047C000232B242B252B21F408950A2609F4A1403C
:1047D000A6958FEF811D811D089597F99F6780E849
:1047E00070E060E008959FEF80EC089500240A9443
:1047F0001616170618060906089500240A941216BC
:1048000013061406050608950C94F3230E945C24F5
:10481000D8F3E894E0E0BB279F57F0F02AED3FE0A3
:1048200049EC06C0EE0FBB0F661F771F881F28F0EC
:10483000B23A62077307840728F0B25A620B730B0F
:10484000840BE3959A9572F7803830F49A95BB0FF4
:10485000661F771F881FD2F790480C94F924092E01
:104860000394000C11F4882352F0BB0F40F4BF2BCB
:1048700011F460FF04C06F5F7F4F8F4F9F4F08950B
:10488000EF93E0FF07C0A2EA2AED3FE049EC5FEBBF
:104890000E9485220E942F240F90039401FC9058BF
:1048A000ECEAF0E00C94052557FD9058440F551F95
:1048B00059F05F3F71F04795880F97FB991F61F0A2
:1048C0009F3F79F087950895121613061406551F19
:1048D000F2CF4695F1DF08C0161617061806991F85
:1048E000F1CF86957105610508940895E894BB277A
:1048F00066277727CB0197F908950E94C92308F40A
:104900008FEF08950E9495240C942F240E94F62383
:1049100038F00E94FD2320F0952311F00C94ED2334
:104920000C94F32311240C9477240E94542470F3E4
:10493000959FC1F3950F50E0551F629FF001729F44
:10494000BB27F00DB11D639FAA27F00DB11DAA1F53
:10495000649F6627B00DA11D661F829F2227B00DA0
:10496000A11D621F739FB00DA11D621F839FA00D2B
:10497000611D221F749F3327A00D611D231F849F7B
:10498000600D211D822F762F6A2F11249F575040D2
:104990009AF0F1F088234AF0EE0FFF1FBB1F661F4D
:1049A000771F881F91505040A9F79E3F510580F016
:1049B0000C94ED230C9477245F3FE4F3983ED4F3FA
:1049C000869577956795B795F795E7959F5FC1F7BA
:1049D000FE2B880F911D9695879597F908959F93C3
:1049E0000E9406240F9007FCEE5F0C9440249F3F2A
:1049F00031F0915020F4879577956795B795880F9A
:104A0000911D9695879597F908959F938F937F931E
:104A10006F93FF93EF939B01AC010E948224EF916F
:104A2000FF910E9419252F913F914F915F910C9416
:104A30008224DF93CF931F930F93FF92EF92DF9225
:104A40007B018C01689406C0DA2EEF010E94952448
:104A5000FE01E894A5912591359145915591A6F3D4
:104A6000EF010E948522FE019701A801DA9469F7FF
:104A7000DF90EF90FF900F911F91CF91DF910895FC
:104A8000DB018F939F930E943122BF91AF91A29F30
:104A9000800D911DA39F900DB29F900D112408953C
:104AA000AA1BBB1B51E107C0AA1FBB1FA617B70754
:104AB00010F0A61BB70B881F991F5A95A9F7809570
:104AC0009095BC01CD01089597FB072E16F4009434
:104AD00007D077FD09D00E94502507FC05D03EF491
:104AE000909581959F4F0895709561957F4F08959A
:104AF000EE0FFF1F0590F491E02D09940E945E22B5
:104B0000B7FF0895821B930B08950F931F93CF93C4
:104B1000DF938230910510F482E090E0E0911E086E
:104B2000F0911F0830E020E0B0E0A0E0309799F469
:104B30002115310509F44AC0281B390B24303105F1
:104B4000D8F58A819B816115710589F1FB019383F9
:104B50008283FE0111C04081518102811381481777
:104B60005907E0F04817590799F4109761F0129629
:104B70000C93129713961C933296CF01DF91CF912D
:104B80001F910F91089500931E0810931F08F4CFF2
:104B90002115310551F04217530738F0A901DB0107
:104BA0009A01BD01DF01F801C1CFEF01F9CF909368
:104BB0001F0880931E08CDCFFE01E20FF31F8193E3
:104BC00091932250310939832883D7CF20911C0833
:104BD00030911D08232B41F420912C0130912D019F
:104BE00030931D0820931C0820912A0130912B013D
:104BF0002115310541F42DB73EB740912E0150915A
:104C00002F01241B350BE0911C08F0911D08E217C1
:104C1000F307A0F42E1B3F0B2817390778F0AC01DF
:104C20004E5F5F4F2417350748F04E0F5F1F5093BC
:104C30001D0840931C08819391939FCFF0E0E0E022
:104C40009CCFCF93DF930097E9F0FC01329713825A
:104C50001282A0911E08B0911F08ED0130E020E003
:104C60001097A1F420813181820F931F20911C089D
:104C700030911D082817390709F061C0F0931D080D
:104C8000E0931C08DF91CF910895EA01CE17DF076A
:104C9000E8F54A815B819E0141155105B1F7E901B3
:104CA000FB83EA8349915991C40FD51FEC17FD0787
:104CB00061F4808191810296840F951FE9019983A7
:104CC0008883828193819B838A83F0E0E0E012965F
:104CD0008D919C9113970097B9F52D913C91119767
:104CE000CD010296820F931F20911C0830911D0860
:104CF0002817390739F6309751F510921F0810928E
:104D00001E08B0931D08A0931C08BCCFD383C28398
:104D100040815181840F951FC817D90761F44E5FF8
:104D20005F4F88819981480F591F518340838A8141
:104D30009B81938382832115310509F0B0CFF093D5
:104D40001F08E0931E089ECFFD01DC01C0CF138237
:104D50001282D7CFFB01DC0102C001900D924150BD
:104D60005040D8F70895FB01DC018D910190801926
:0C4D70000110D9F3990B0895F894FFCFBF
:104D7C006464646464646464646464646400C180D2
:104D8C0081000000FFFFFFFF00E1000000000000B9
:104D9C009906990699069906990600002008800044
:104DAC00021E000001FF02FF000201010200FF02CF
:104DBC00FF01000000000084033C050A040F000002
:104DCC0000000000EC11A10A4D0A330A000000009B
:104DDC0096088008D208C7082109D708F9080D0AD7
:104DEC00004745545F53455454494E47530047457B
:104DFC00545F4C4956455F53544154450041505003
:104E0C004C590053415645004C4F41445F44454674
:104E1C0041554C5453005345545F43454E544552F1
:104E2C005F4E4F57005345545F43454E5445520017
:104E3C0053455420004D494E5F464F524345200088
:104E4C0044414D50494E4720004652494354494F26
:104E5C004E2000535052494E47200052414E474578
:104E6C00200043454E5445522000494E565F454E56
:104E7C00434F4445522000494E565F4D4F544F52BC
:024E8C00200004
:00000001FF
